:020000040000FA
:10000000180B0020D90100007B2B0000092A0000FA
:1000100000000000000000000000000000000000E0
:10002000000000000000000000000000592D00004A
:100030000000000000000000552D0000052E00000B
:10004000192300001B2300001D2300005123000082
:1000500053230000EB01000089200000EB010000A9
:10006000EB010000D33600001D220000EB01000070
:1000700005200000851F0000EB0100005D3400003A
:10008000C5340000EB010000EB010000912E0000E0
:1000900059330000EB010000EB010000D1360000F5
:1000A0000B2A0000EB010000572D0000EB010000BF
:1000B000EB010000EB010000EB010000792B0000D8
:1000C00000F002F800F05DF80CA030C808382418E1
:1000D0002D18A246671EAB4654465D46AC4201D180
:1000E00000F04FF87E460F3E0FCCB6460126334255
:1000F00000D0FB1AA246AB463343184728610000E4
:1001000048610000103A02D378C878C1FAD8520783
:1001100001D330C830C101D504680C6070470000BD
:100120000023002400250026103A01D378C1FBD813
:10013000520700D330C100D50B60704710B5662957
:1001400002D105F08FFF10BD642902D100F0BCF888
:1001500010BD782902D100F0EDF810BD732902D14D
:1001600001F01DFB10BD002010BD1FB501F044FBC8
:1001700004000020002105F05FFFE0601FBD10B506
:1001800010BD01F093FE1146FFF7EFFF04F098FB5E
:1001900001F0ABFE03B4FFF7F2FF03BC03F0DDFA9E
:1001A00070B505460C46164602E00FCC0FC5103E52
:1001B000102EFAD2082E02D303CC03C5083E042E1B
:1001C00007D301CC01C5361F03E021782970641CD8
:1001D0006D1C761EF9D270BD07488047074800475E
:1001E000FEE7FEE7FEE7FEE7FEE7FEE70448054917
:1001F000034A054B704700008D2E0000C10000002F
:1002000018030020180B0020180300200FB4054924
:1002100010B503AA029801F0C7FA10BC08BC04B0DC
:1002200018470000E400002070B5044685690068A6
:10023000C10601D5302600E02026C00707D070BDDA
:1002400062683046A1689047206A401C20626D1E9B
:10025000F6D570BD70B5044685690078C00707D132
:1002600070BD6268A16820209047206A401C20620F
:100270006D1EF6D570BD70B50C460546012A05D039
:100280002878800600D5EA69002302E0012305E012
:100290005B1C934202D2E05C0028F9D1A869E61801
:1002A000C01AA861286AC01828622846FFF7BCFF58
:1002B00004E06A682078A968641C9047B442F8D3C7
:1002C0002846FFF7C7FF70BDF7B5002575291068F0
:1002D000009914A611D0C046C046002802DA404258
:1002E00011A608E0009909688A0701D50FA602E067
:1002F000490704D50EA6012501E0C046C046009F6F
:100300000024243704E001F063FA30313955641CCD
:100310000028F8D12B4632462146009800F0CAFF4B
:10032000FEBD0000000000002D0000002B000000BA
:100330002000000070B504460D4621461068C046F6
:10034000C0462188090502D50F4A7A4402E00E4AC8
:100350007A440E3223460021243305E006070009C3
:10036000360F965D5E54491C0028F7D12078002393
:10037000000705D5702D03D0002901D002231132CA
:10038000204600F097FF70BD425D0000F3B50446C3
:10039000002081B020622046E1688847002872D0A2
:1003A000252802D06268A168ABE0594F00267F443F
:1003B0002046E16888472028054608DB312D06D213
:1003C000781920380078002801D00643F0E7B007FC
:1003D00001D5042086430020E0610746A0612A2D54
:1003E0000AD0284603F0B2F9002827D0B800001937
:1003F000303D0090856119E00298BA00121902C8D8
:10040000916102902046E1688847012F054617D187
:10041000E06900281FDA202086431CE000980A21AA
:100420008069484300994019303888612046E16866
:100430008847054603F08AF90028EFD1012F0AD03A
:100440002E2D08D12046E168884705462020064326
:100450007F1C022FC3DBA069002803DA4042A061A1
:1004600001200643F00701D0102086436C2D0BD0ED
:10047000682D09D04C2D3CD06A2D38D0742D38D041
:100480007A2D36D016E040E0E1682F4620468847B6
:10049000B842054609D16C2F29D001208002E168BD
:1004A000064320468847054604E06C2F1DD0FF20F8
:1004B00001300643002D28D028464138192803D89A
:1004C0000120C00206432035204626602946029AB4
:1004D0001646FFF733FE002810D001280BD0F61D7A
:1004E000F008C0000830029055E74020E1E7802086
:1004F000D5E70020D3E7361D02964CE76268284610
:10050000A1689047206A401C44E7206AFEBD0000B5
:10051000065D0000F8B5042A2CD3830712D00B78AF
:10052000491C0370401C521E83070BD00B78491CDA
:100530000370401C521E830704D00B78491C0370C3
:10054000401C521E8B079B0F05D0C91ADF002023C9
:10055000DE1B08C90AE0FFF723FEF8BD1D4608C9E7
:10056000FD401C46B4402C4310C0121F042AF5D293
:10057000F308C91A521EF0D40B78491C0370401CB2
:10058000521EEAD40B78491C0370401C012AE4D4A3
:1005900009780170F8BD01E004C0091F0429FBD2ED
:1005A0008B0701D50280801CC90700D002707047FC
:1005B00000290BD0C30702D00270401C491E02293B
:1005C00004D3830702D50280801C891EE3E7002242
:1005D000EEE70022DFE7002203098B422CD3030A57
:1005E0008B4211D300239C464EE003460B433CD480
:1005F000002243088B4231D303098B421CD3030AE8
:100600008B4201D394463FE0C3098B4201D3CB0117
:10061000C01A524183098B4201D38B01C01A524147
:1006200043098B4201D34B01C01A524103098B424B
:1006300001D30B01C01A5241C3088B4201D3CB0036
:10064000C01A524183088B4201D38B00C01A524119
:1006500043088B4201D34B00C01A5241411A00D2C9
:1006600001465241104670475DE0CA0F00D0494232
:10067000031000D34042534000229C4603098B42A2
:100680002DD3030A8B4212D3FC22890112BA030A2A
:100690008B420CD3890192118B4208D389019211AC
:1006A0008B4204D389013AD0921100E08909C30931
:1006B0008B4201D3CB01C01A524183098B4201D333
:1006C0008B01C01A524143098B4201D34B01C01A1E
:1006D000524103098B4201D30B01C01A5241C30896
:1006E0008B4201D3CB00C01A524183088B4201D305
:1006F0008B00C01A5241D9D243088B4201D34B0020
:10070000C01A5241411A00D20146634652415B1061
:10071000104601D34042002B00D549427047634642
:100720005B1000D3404201B50020C046C04602BD68
:1007300070477047704700000246C80FC0078143EA
:100740004B0030B54B405B009B0D20D01923DB06DE
:10075000C91801231B05994220DB0324A4070425A3
:100760001346AB400BD3002B04D1EB0613409B0088
:10077000E34204D401246407002312195941FF23E2
:100780001B0599420BD2C9000143500F09E0CB026F
:1007900004D501430803024305D0054830BDFF21BD
:1007A000C905084330BD084607210905884330BD07
:1007B0000000C07FF0B50C46871A9C410D46861A92
:1007C0009D4103D2C01BA141D21963410D0D1F0DE4
:1007D000C94EEC1BAE435CD07F057F0D0026002F79
:1007E00051D02D05AC46A943DD020123ED0A1B05BE
:1007F0001D4320231B1B24D41746E74038187141A2
:100800002F46E740CC199D402818314661410C0D18
:1008100027D161449A4013D50023401C594152000E
:100820000ED14008400001224B005205D34207D3AD
:1008300005204007C14201D5B04900E0B04930462B
:10084000F0BD6B00002A00D001229A181F23203C23
:100850001B1B01D5002302E0E540281871410C0D57
:10086000D7D0012424050919C407CD074008490839
:10087000E40F28436144002CD5D00024401C614182
:100880009A40D0D1CDE76A05520DD9D1C90FC90719
:10089000D5E79C4D4E00002801D0012400E0002443
:1008A00034195F00002A01D0012600E00026BE199D
:1008B000954FAC420CD8AE420AD8B44206D00125BE
:1008C0006D05EC42BCD010461946F0BD9942FCD0F3
:1008D00000203946F0BDF0B51FB40C460F46811A12
:1008E0009F412546861A9D4106D20125ED076F409E
:1008F000401ABC4152187B41210D1E0D8D1BAC4688
:100900007D4D8D437ED075056D0D7CD00D05AE46B9
:10091000AC431B031B0B794D52429D41202366467D
:100920009B1B14D31746F7403818002600907441DB
:1009300060462F460741E41900989D4028186641FB
:1009400016D4714671189A4025D5012320E09318DA
:100950002A466A415200002B00D0521C1E23203E22
:100960009B1B002B61DD3541EE1728186641E8D549
:10097000001876415B1C9A4000D3401C4B05F318CD
:100980001524E34010D3002B52D071467118D30FB9
:10099000C01802D3491C05B0F0BD0123DB079A4201
:1009A000F9D140084000F6E701225205B21801D102
:1009B000002853D00123CC0ADB029943891E002A68
:1009C00008D1020C03D0020C0004103902E00246E8
:1009D000002020390023550B05D112020823550BA6
:1009E00001D152010D23550C01D112011B1DD50C53
:1009F00001D192009B1C150D01D152005B1C2025DA
:100A0000EE1A01E02CE022E00546F540154398403F
:100A1000CA1AE10769181305C918002ABBDA0320AE
:100A200040070818C10FC9070FE071466118B2E707
:100A3000F10740080843711071444A000CD00123AB
:100A40005B059A42A7D2C90FC9070020A3E7490551
:100A5000490D26D1002001E00028F4D100219AE7B9
:100A6000284D6600002801D0012100E00021711806
:100A70005F00002A01D0012600E00026BE19224FA7
:100A8000A94210D8AE420ED8B14208D001256D055A
:100A9000E94206D01946A802414010467BE79C4235
:100AA00001D0214677E70020394674E710B50C469F
:100AB0005C4005D50124E4076340FFF70CFF10BD3F
:100AC000FFF778FE10BD30B40C465C4004D501241D
:100AD000E407634030BC6DE630BCFCE670B5012431
:100AE000E40761400D465D4002D4FFF763FE70BD30
:100AF0006340FFF7F0FE70BDFF0700000000F0FF4D
:100B00000000F07F0000E0FF0000F87FF0B5F94D35
:100B10000C091E092C402E402F468BB0A7437DD0D8
:100B2000B543FCD0002E7AD0002CFCD00D465D40A1
:100B3000ED0F2543AC1BFF25AD0464190894C502D5
:100B4000440DC9022143500DDC0204430120C007BB
:100B500001430443D2020191200C110C00958C46F4
:100B6000010423468B430A9161460904E24D8A43FE
:100B70000991010A7D4449198039097805464D4398
:100B800001266D18F605751B6943C90C640B891C99
:100B90004C436418B5012C1B250C2E04B4434C4364
:100BA0004D43210C691889090591009DE90701D081
:100BB0000121C90704912C4601996708CD072F43ED
:100BC0004C08059DE10B4D432D0C294666467543A7
:100BD00002950D4645432E46029D7D1BB44100956E
:100BE0000D465D4301942C0C2F040D465543AE4633
:100BF0002D0C3D43029503947546049C2D04641B03
:100C0000049406D2029C039D641C00267541039542
:100C1000029401AC70CC009F7D1B01E03EE162E1DB
:100C2000B44109040095079101940599A408614312
:100C3000090C0C464443650BE7040C4666467443B6
:100C4000A646640B3C43039502947446049DE40459
:100C50002C1B049406D2029C039D641C0026754143
:100C60000395029401AC70CC009F7D1BB4410194AC
:100C70000C465C430095650FE7000C465443A646BE
:100C8000640F3C43039502947446049DE4002C1BBE
:100C9000049406D2029C039D641C002675410395B2
:100CA000029401AC70CC009F7D1BB441AE09AF062D
:100CB000049DC900AD092F43049DA406AD0604950B
:100CC000079D344369180791059DE10B4D432D0C99
:100CD00029466646754302950D4645432E46029DBC
:100CE0007D1BB44100950D465D4301942C0C2F04EF
:100CF0000D465543AE462D0C3D4302950394754673
:100D0000049C2D04641B049406D2029C039D641C65
:100D1000002675410395029401AC70CC009F7D1BA9
:100D2000B44101948C050694079C890A61180095CA
:100D30000791019C0599A4086143090C0D464543A0
:100D4000680BEF040D46644665436C0B3C43049FFF
:100D5000ED047D1BAC4602D20025641C6841009E58
:100D6000019D371B85410846584301950C46460FA7
:100D7000C5005443600F28436546E4002C1B02D293
:100D80000025401C6E41019D3F1AB5412846BD0912
:100D9000800628438446A009BF064E020699A40691
:100DA00076180743079D002068410A990790194368
:100DB0000020099B00906046FF1913434041E20F59
:100DC00064003A43A4460446D71A8C41A04203D992
:100DD0000120009020463A46C70F941840416246D1
:100DE000D20F2243644664000494009CBE46640013
:100DF000D71AA446044602978C417746002F01D1AA
:100E0000A04204D96046401C8446029A2046C40F82
:100E1000A64694184041049A0546D20F22436446E0
:100E20006400D31A8D417146002901D1A84202D92C
:100E300028461A46641C10430122002800D016439D
:100E400061020020079B891904465C410223002CA3
:100E500002DB491813466441089DCE0A2D145D1922
:100E60004B056705E10A2C050D1908993E43C90792
:100E70006940002B08D0934006D30022761C5141D4
:100E8000002B01D1760876001C4A002D43DB154269
:100E900041D0AA433FD030460BB0F0BD06180D46F6
:100EA0004D41174C7642AC411AD395181C465C4113
:100EB000134A6D42A24113D3012252054C00D44281
:100EC0000AD15C00D4420BD04B4002D592021143B0
:100ED000E2E749004908DFE75940C90FC90718E0B0
:100EE00000200849D8E7054801420DD10342F7D058
:100EF000F2E700000000FF07515500000000F07FFE
:100F00000000E0FF0000F87F114859400143C01283
:100F100041400020C0E70123089A9B069A4205DC65
:100F2000032252078918C90FC907B5E705225207DE
:100F30008918074A1143D2125140ADE770B51546E2
:100F40001C4602460B4628462146FFF7DFFD70BDD2
:100F5000FFFFFF7F30B50346CA02400D1043164D18
:100F6000164C0A1502D02043002A06DBAA1A002AD2
:100F700012DDD040FF2A0BDC30BD5205520D01D1ED
:100F800040004008AA1A07D4D0404042FF2A01DDA1
:100F9000002030BD0028FCDD4A00002B01D00120DC
:100FA00000E00020101801225205D042F0D8C817E6
:100FB000C043604030BD00001E04000000000080FF
:100FC0001F22030C02D10F22000402D0030E03D013
:100FD00004E00020014670470002083A030F01D1E7
:100FE0000001121F830F01D18000921E002801DB37
:100FF0004000521E120551184205C01241181046F9
:101000007047C10FC90700D0404201229207114327
:10101000D6E701218907D3E7F0B58B4C0F092546A8
:1010200089B0BD437BD01D092646AE43FAD00E469B
:101030005E402740F60F3E43254071D024012142F7
:10104000FBD0FF24AD19A4042D1B039501252D050C
:10105000DB02DB0AC9022B43C90A29431E0109012D
:10106000040F130F050121431701880B82039143DD
:101070002D098C46A90B1E438A039543B30B9A0393
:1010800096433F09BA0B9403A74302962E467E432C
:101090000497B6464E19D7190C4601965443059746
:1010A0007E43371B7646BF1B3601B646BE0B36194C
:1010B00000967646BC043719009C01D3641C00944A
:1010C0006400002F01D001263443029E049F754323
:1010D00066467E430496760034196E0034190094F7
:1010E000029C019E1C196643751BAE46069465461C
:1010F0004519059C05956C43594375460891691A35
:101100000191049E01465143A41B0491611A009C65
:101110000791E10605D061090122114302E072E066
:101120006EE06109089D00272C0A2D066918049DB0
:101130007C412A0A2D066918019D6241AC0DAD0261
:101140006D185441079A910D920255196141029A06
:10115000644658435443069B059A5A43121A131B7C
:101160009A0E9B015B187A41010B0005C31851418F
:10117000220A200644195A419A4200D2491C0120F1
:101180004002814203D315230226F64302E01423D2
:101190000326F6432020C51AA9401746AF40DA407F
:1011A0000A4320460399D8400914731819055118A9
:1011B000039A3843D2075140AC4009D001229440F1
:1011C00006D30022401C5141002C01D140084000B0
:1011D0001E4A934212D3012203989206904207DBE3
:1011E0000520400709181A480143C012414004E095
:1011F000032040070818C10FC907002009B0F0BD3F
:101200000020F107FAE705180C464C4111486D42E1
:10121000A04115D394181A465A410E486442904191
:101220000ED301204A004005824209D35A0082426F
:1012300006D35940C90F084AC90700201143DDE70A
:1012400000200649DAE700000000FF07FE07000063
:10125000FFFFFF7F0000E0FF0000F07F0000F87F4D
:101260000121C9050123411842001B06D3185B0E5A
:101270000AD0C1100722D206891840075242D14233
:1012800001D5520089187047090208D50146002A85
:1012900003D0C10FC90700207047104670474202B3
:1012A00002D0002002497047072109050143F4E7F5
:1012B0000000F87FFFB504460D4681B02430009051
:1012C0002168880604D51022E0699143216000E07E
:1012D0000120A84201DD471B00E000270498A16916
:1012E0007A191018081AA0612078C00602D4204686
:1012F000FEF79AFF002608E003986268A168805D07
:101300009047206A401C761C206204988642F3DBDA
:101310002078C0060AD52046FEF786FF06E0626800
:10132000A16830209047206A401C206238467F1E0A
:101330000028F4DC07E000986268A168405D9047EF
:10134000206A401C206228466D1E0028F3DC2046DF
:10135000FEF780FF2078000602D5022005B0F0BD20
:101360000120FBE77047FFB50C461E468FB003CA4D
:10137000089009914F007D0D00D16D1E0021084697
:101380000020C0460321099A89050840002A03DA93
:101390008200801840080840800D01280A9002DD74
:1013A0000020C0430A90089807430DD0EF48F04949
:1013B000281848430714189800281DD07542291E84
:1013C0001DDD0A9842421BE01898012802D0002037
:1013D000302104E00020F24305E02154401CB042DB
:1013E000FBDB30460022189B002121540F998B60B3
:1013F0000A60486013B0F0BDBD1B6D1CDFE70A9AA0
:10140000002900DA69420BA800F094FA0BAB07CB75
:1014100003AB07C30899099800F0F0FA6B4607C3BD
:101420000146D4480918002D00910ADDD1490398DE
:101430000A9A4942401803A90390684600F003FD48
:1014400007E003990A9A081803A90390684600F078
:10145000D0FC6B4607C30004000C03D00020C0433F
:10146000410800E01046189A002A03D0002200929A
:1014700015461EE0751E05D400F0C2F930326255E3
:101480006D1EF9D501220843079602D000227F1C69
:1014900004E02078302801D100227F1E002A069720
:1014A00089D01EE0112D07DA00F0AAF9303262551A
:1014B0006D1C02460A43F5D1084303D0009800286A
:1014C00019D00EE00021681E05E0235C625C6354C5
:1014D0002254401E491C8142F7DBA81B401E079581
:1014E0000690079A18990020A0540F98079B069A17
:1014F00081600CC07EE71126002018905BE7D21DAA
:10150000F0B50D460446D10893B0C90003C90C904C
:101510000D9102F005F902460D98C00F01D02D2063
:1015200007E02068810701D52B2002E04007C00FAB
:101530004001032A0F9001D0072A05DB0346294604
:10154000204600F0B3F90EE12078800601D5E76966
:1015500000E006272846652D04D0662814D0672DA4
:1015600069D12DE00020112F009001DB112300E054
:101570007B1C0CAA03A910A8FFF7F5FE1199002601
:1015800010987D1C0E9142E001203B460CAAC0073A
:101590000B900120009003A910A8FFF7E4FE119D15
:1015A00012981099002600280E9501D1781C0D186C
:1015B000781B02D446427D1C761EE81B00903AE060
:1015C000012F00DA01270020112F009001DD1123E7
:1015D00000E03B460CAA03A910A8FFF7C4FE11992E
:1015E0003D46109800260E91217809070BD40E99DC
:1015F000A94200DA0D4603A9012D04DD4A19203A5B
:10160000D27F302A06D0B84201DA011D04DA012166
:1016100000910FE06D1EEFE7002802DC86192D1AFD
:1016200003E0411CA94200DD0D46801B401C0090D8
:101630000120C0070B902078000705D40098A8422D
:1016400002DB0020C043009069460020C8720B985E
:10165000012102AF0337C907884225D0022010902C
:101660002B2011900B9800280BDA40420B902D2074
:10167000119006E00B9800F0ABF830317F1E0B9014
:1016800039701099481E00291090F3DC0B9800283F
:10169000F0D111987F1E38702088000501D54520B3
:1016A00000E065207F1E387001A8C01BC01D0B9094
:1016B0000F98002800D0012041190098C017091880
:1016C0000B980818A169081A401EA0612078C0066E
:1016D00002D42046FEF7A8FD0F98002805D06268C6
:1016E000A1689047206A401C20622078C00625D55A
:1016F0002046FEF799FD21E0002E07DB0E98B04250
:1017000004DD03A86268805DA16802E06268A168E8
:1017100030209047206A761C401C20620098401EB2
:10172000002800900AD100F067F8C068626801687C
:10173000405CA1689047206A401C206228466D1ECC
:101740000028D9DC07E062683878A1687F1C9047E0
:10175000206A401C20620B99481E00290B90F2DC85
:101760002046FEF777FD032044E6000001FCFFFF62
:10177000104D0000E1DFFFFF10B54369002B02D0E0
:10178000C046C04601E0FEF776FD012010BD12788C
:10179000014624310A7000224A700122ECE71168E8
:1017A0000022D243E8E70000084B70B50D467B44A9
:1017B00000F069F80446284602F08AFE002802D0AC
:1017C0000020C04370BD204670BD0000872D000082
:1017D00001468008081A02091018020A1018020CA3
:1017E0001018C008820012185200891A01E0401C2B
:1017F0000A390A29FBD2704700487047D8020020F6
:101800000B4670B5024689078008084319469D08B3
:10181000141AA94125090807054308092C1948414C
:10182000250A01060D43010A2C194141200C0D0423
:1018300028430D0C00194D41002140194D41C008AD
:1018400069070843E908840F8D00254384002418A4
:101850004D4124196D41121BAB4107E00925ED43B1
:101860002C11521963410024401C61411C460A2579
:101870000026551BB441F1D270BD000001694A1C1D
:1018800002610878704700B58FB002910021059180
:101890000549019379440391114604906846FEF787
:1018A00075FD0FB000BD0000E5FFFFFFF8B51F4656
:1018B000044601230068DB02032601461840072A7C
:1018C00005DB002801D017A506E017A504E00028D5
:1018D00001D016A500E016A5102081432160A06963
:1018E000C01E002FA06101D0401EA0612046FEF75F
:1018F0009BFC002F09D038466268A1689047206A97
:10190000401C2062C01C206206E0206AFAE7626880
:101910002878A1686D1C9047761EF8D22046FEF705
:1019200099FCF8BD4E414E006E616E00494E460076
:10193000696E6600F7B516468AB02F4878446C4643
:1019400003467C33C06F5A689B680DC42A487844AC
:10195000763003AC0DC80DC43720C00108183721FC
:101960001B30FEF742FE05460C46803D1B3C02D56F
:101970006442012000E00020002709900FE0E0070A
:101980000BD00C201C497843794432464C3941181D
:10199000684600F02EFA6B4607C364107F1C002CCB
:1019A000EDD1154F7F442C3F15E0E80711D0200101
:1019B000C0190EC80691089307920068F04201D141
:1019C00098190890324606A903A800F012FA03AB52
:1019D00007C36D10641C002DE7D132466946099893
:1019E000002803A802D000F02EFA01E000F001FA6E
:1019F0000A9B07C30DB0F0BD0C4800000346400031
:101A00000A4610B5400D0BD00121C9070F24A402CE
:101A100000191C0364082143540D2143D20207E03E
:101A200000210120F2E7D40F490021435200401E5B
:101A30000029F8DADB0FDB07184310BDFFB50D46B0
:101A4000144685B04868516801F044FE0091019049
:101A5000A868A16801F03EFE02910390A868616841
:101A600001F038FE029A12188242029201D201203D
:101A700000E00020019A0B18D2180028019202D031
:101A80008A4202D903E08A4201D2012000E000200C
:101A90000099081800906868A16801F01BFE029A7E
:101AA00012188242029201D2012000E00020019A25
:101AB0000B18D2180028019202D08A4202D903E002
:101AC0008A4201D2012000E000200099081800900D
:101AD0002868216840004900400849084018EE493C
:101AE000471814E001994000C90F0843009001987D
:101AF00002994000C90F08430190029803994000E1
:101B0000C90F08430290039840007F1E039000987D
:101B10000028E7DA0898002801D0E04E00E000260F
:101B2000B74228DAF71BF806C00E15D0029B202119
:101B3000091A039A8B401A430392029A019BC240EE
:101B40008B401A430292019A009BC2408B4000993D
:101B50001A430192C14000917A110BD06B460320C9
:101B6000811A01D5002101E0890059588700401EE3
:101B7000D951F5D5374603980299002800D00120A5
:101B8000014308980291002808460CD0002800D094
:101B900001200199019A490508430121D20AC9028D
:101BA000D202019200E001210E9B0122D207012BFB
:101BB00002D0002B03D013E0002807D116E090429A
:101BC00004D890420CD1019B0B4209D0019B5918BB
:101BD000019105D10099491C009101D17F1C00920F
:101BE000002803D0102108460020C046286821683C
:101BF000019B009A4840C10F0598C90739430EC0A0
:101C000009B0F0BDFFB587B0099A089808995368E4
:101C10009268406889689646002203931746944666
:101C2000089A12685300099A5B0812685200520819
:101C30009A1A9B4BD4180A9A002A01D0352200E048
:101C4000402206920022012315460492DB070593E9
:101C500024E0002D05D175460346039E4D1BB3417C
:101C600009D375466646039B491B049D9841059B15
:101C70007519AC465F4163463B4308D0059B049E03
:101C8000DD0776082E435B080496059301E0521E9B
:101C9000641EC50FED0749184041521C069B9A422D
:101CA000D7DB002D04D17546039A6B1A824101D20D
:101CB00003200CE0039A0B466B404240134303D0D1
:101CC000014303D0012002E0022000E00020614631
:101CD00001910021009702910A99002905D06146DF
:101CE000400201436D4B019102E080070023029006
:101CF0009C423ADA1A1BD006C00E15D0029D202154
:101D0000019C091AC5408C402543029C8C4000D0A0
:101D100001242543019C02953D46C4408D4039462F
:101D20002C43C1400194009154111DD06D460221F5
:101D3000002202290CD10320001B07E0002804DB4D
:101D40008600AE59002E00D00122401C0328F5DB8E
:101D5000081B02D588002A5004E080002858104350
:101D60008A00A850491EE3D51C460A98002802980C
:101D70000CD0002800D001200199019A49050843A0
:101D80000121D20AC902D202019200E00121109B76
:101D90000122D207012B02D0002B03D013E0002830
:101DA00007D116E0904204D890420CD1019B0B421F
:101DB00009D0019B5918019105D10099491C009146
:101DC00001D1641C0092002803D010210846002095
:101DD000C04608980999019A006809684840009926
:101DE000C30F0798DB0723430360826041600BB099
:101DF000F0BD1FB5002300920A46014601A8FFF777
:101E00001DFE01AB07CB04B010BD1FB5012300922E
:101E10000A46014601A8FFF711FE01AB0F2407CBCC
:101E2000A402C30F4000DB074008001B002900DBB1
:101E30000020490000054908CC0A20434905184301
:101E4000D20A1143DFE71FB5002300920A4601467C
:101E500001A8FFF7D7FE01AB07CBD4E71FB50123DD
:101E600000920A46014601A8FFF7CCFE01AB0F2401
:101E700007CBA402C30F4000DB074008001B00296A
:101E800000DB0020490000054908CC0A2043490531
:101E90001843D20A1143B6E702C0FFFF013C00001D
:101EA000FF3F000000487047B80200207546FFF76A
:101EB000F9FFAE46050069465346C008C000854696
:101EC00018B020B5FEF792F960BC00274908B64665
:101ED0000026C0C5C0C5C0C5C0C5C0C5C0C5C0C539
:101EE000C0C5403D49008D46704710B50446C04608
:101EF000C0462046FEF74EF910BD0000024670B500
:101F00000A4392072AD11E4DEE0104C808C9541B8A
:101F10009443344017D0D0B2D9B2401A21060143BD
:101F200010D190B299B2401A210401430AD1100293
:101F30001902000A090A401A2102014302D1100EB7
:101F4000190E401A70BD9A42DFD010BA19BA8842F1
:101F500001D9012070BD0020C04370BD02780B780C
:101F6000401C491C002A09D09A4207D102780B78FC
:101F7000401C491C002A01D09A42EFD0D01A70BDF3
:101F8000010101017047000010B555239B24E405B1
:101F9000E36223461B68094C23409B24E40523602D
:101FA00023461C6803460B4313431C439B23DB055A
:101FB0001C6000239B24E405E36210BDC7CFFFFF34
:101FC00055209B21C905C862084640680221884304
:101FD0009B21C90548600020C862704755219B229B
:101FE000D205D16211460969014311610021D16214
:101FF00070470000014602488A0080587047000080
:102000008000804D704755209B21C905C862084655
:102010000068102108439B21C90508600020C862A0
:10202000704755209B21C905C862084640680121B8
:1020300008439B21C90548600020C86200BF9B205F
:10204000C0054068C007C00F0028F8D170470000E5
:1020500010B50120C00600F0C7FE032212030321C1
:102060000020FFF791FF0120FFF7B8FF00BF00201D
:102070000449086000BFFFF7C6FFFFF7D2FFFFF774
:102080009FFF10BD400000507047000010B5552262
:102090000D4B9A630D4A9523DB051A601A46526868
:1020A00084000F23A3409A439523DB055A601A4608
:1020B000526884000B46A3401A439523DB055A60FF
:1020C0000022014B9A6310BD4000804A01010100CB
:1020D00010B555220A4B9A638BB2094A2C3A8400F8
:1020E00013519522D20512690346083301249C40FE
:1020F00022439523DB051A610022014B9A6310BD30
:102100004000804A10B55522114B9A63104A143A88
:102110008300D258130C1B040D4A143A8400135147
:102120008300D2588BB21A43094B143B84001A51D6
:102130009522D20512690346083301249C402243AC
:102140009523DB051A610022014B9A6310BD000044
:102150004000804A10B555220D4B9A639522D20556
:1021600012694300103303249C40A2439523DB05EE
:102170001A611A461269430010330C469C402243F0
:102180009523DB051A610022014B9A6310BD000004
:102190004000804A5521094A91639521C905896803
:1021A0000F22920591439522D205916011468968CC
:1021B000014391600021014A916370474000804AC9
:1021C0005521074A91639521C90589680202914307
:1021D0009522D20591600021014A91637047000069
:1021E0004000804A5521064A91639521C9058968B6
:1021F00001439522D20591600021014A9163704705
:102200004000804A5521044A916311468968014380
:1022100091600021916370474000804A7047000040
:102220005521064A91639521C905C9680143952244
:10223000D205D1600021014A916370474000804A75
:102240005521084A91639521C905C96881439522A2
:10225000D205D16011460969014311610021014A8B
:10226000916370474000804A0F499322D205116163
:102270001146486000BF9321C9050968202211401A
:102280002029F8D003219322D205D16000BF9321E9
:10229000C9050968202211402029F8D00021932285
:1022A000D2051161704700009966AA550146074A98
:1022B0009323DB051A618A0892005A600122DA60D2
:1022C0001A46906800221A61704700009966AA5564
:1022D000104A9323DB051A61820892005A601A465D
:1022E000916000BF9322D205126820231A40202A51
:1022F000F8D002229323DB05DA6000BF9322D205D7
:10230000126820231A40202AF8D000229323DB05EC
:102310001A6170479966AA557047704710B5062133
:102320005320000600F065FB00280CD00120064970
:10233000087006480078401C0449087006215320A4
:10234000000600F007F810BD9C000020900000205F
:1023500070477047C26901238B401A43C2617047BE
:1023600010B500BF0020FE49086000BF00BF4860F4
:1023700000BF00BF086100BF00BF486100BF00BFD1
:10238000886100BF00BFC86100BF00BF086200BF16
:1023900000BF886200BF00BFC86200BF00BF086303
:1023A00000BF00BF486300BF00BFED494031486037
:1023B00000BF00BF886000BF00BFC86000BF00BF93
:1023C000086100BF00BF486100BF00BF886100BF57
:1023D00000BF086200BF00BF486200BF00BF886244
:1023E00000BF00BF086300BF00BF486300BF00BF5D
:1023F000886300BF00BFDA498031086000BF00BFBA
:10240000C86000BF00BF086100BF00BF29204006B0
:102410000068C008C0002921490608600846006815
:102420000321084329214906086000BF00BF084670
:102430000068702188432921490608600846006821
:102440003021084329214906086000BF00BF084623
:1024500000680721090488432921490608600846C5
:10246000006801210904084329214906086000BFCA
:1024700000BF08460068072109058843292149064D
:10248000086008460068012109050843292149061A
:10249000086000BF00BF084600680721090688439E
:1024A00029214906086008460068012109060843F9
:1024B00029214906086000BF00BF084600680721BF
:1024C0000907884329214906086008460068012158
:1024D0000907084329214906086000BF00BFA5205D
:1024E000C0050068C008C000A521C90508600846ED
:1024F000006801210843A521C905086000BF00BF8D
:1025000008460068072109028843A521C90508601B
:1025100008460068FF2101310843A521C90508606C
:1025200000BF00BF08460068072109038843A521B2
:10253000C905086008460068012109030843A52170
:10254000C905086000BF00BF0846006807210904EC
:102550008843A521C90508600846006801210904CF
:102560000843A521C905086000BF00BF08460068F0
:10257000072109058843A521C905086008460068A8
:10258000012109050843A521C905086000BF00BF56
:102590005320000600687021884353210906086013
:1025A000084600683021084353210906086000BF2F
:1025B00000BF084600680721090288435321090625
:1025C00008600846006803210902084353210906F0
:1025D000086000BF00BF0846006807210903884360
:1025E00053210906086008460068032109030843CF
:1025F00053210906086000BF00BF08460068072194
:10260000090488435321090608600846006803212D
:102610000904084353210906086000BF00BF0846AB
:102620000068072109058843532109060860084608
:10263000006803210905084353210906086000BF0B
:1026400000BF084600680721090688435321090690
:10265000086008460068032109060843532109065B
:10266000086000BF00BFA720C0050068C008C00008
:10267000A721C90508600846006801210843A72171
:10268000C905086000BF00BF084600687021884384
:10269000A721C90508600846006810210843A72142
:1026A000C905086000BF00BF08460068072109028D
:1026B0008843A721C905086008460068FF21013149
:1026C0000843A721C905086000BF00BF084600688D
:1026D000072109048843A721C90508600846006846
:1026E000032109040843A721C905086000BF00BFF2
:1026F00008460068072109058843A721C905086025
:1027000008460068032109050843A721C905086098
:1027100000BF00BF08460068072109068843A721BB
:10272000C905086008460068012109060843A72179
:10273000C905086000BF00BF152080060068C008FA
:10274000C000152189060860084600680121084379
:1027500015218906086000BF00BF0846006801E037
:1027600040000050072109038843152189060860AD
:1027700008460068012109030843152189060860FD
:1027800000BF00BF084600680721090488431521DF
:1027900089060860084600680121090408431521DC
:1027A0008906086000BF022240215320000600F085
:1027B000E9F80522120240215320000600F0D6F865
:1027C000062153200006FFF7C5FD022001218140AC
:1027D000654A116000BF032100F0DAF91520800678
:1027E000806840084000401C152189068860292027
:1027F00040068068102188432921490688600846E0
:10280000806820218843292149068860084680681D
:102810004021884329214906886008468068802134
:1028200088438030292149068860A520C00580683A
:1028300040084000A521C905886008468068042139
:102840008843A521C905886008468068102188430F
:10285000A521C90588600846806808218843A5210C
:10286000C9058860A720C005806840218843A7214A
:10287000C9058860A520C0058068202188432030D4
:10288000A521C90588601520800680680821884335
:102890000830152189068860A720C0058068400897
:1028A0004000401CA721C90588601520800680686B
:1028B000102188431030152189068860A720C005A3
:1028C000806802218843801CA721C90588600846CA
:1028D000806804218843001DA721C9058860532012
:1028E0000006C06802218843801C53210906C86085
:1028F000A720C005C068102188431030A721C90552
:10290000C8600846C068202188432030A721C90537
:10291000C86053200006C06808218843083053214E
:102920000906C8600846C06804218843001D532179
:102930000906C8600846C06810218843103053213A
:102940000906C8600846C0684021884340305321CA
:102950000906C8600846C0682021884320305321FA
:102960000906C86010BD000000E100E010B5C36AB0
:1029700007242402A343C362C36A0C4614432343BF
:10298000C36210BD00B5130000F0BCFE05040B12BD
:102990001C262D00036A0B430362436A8B43436288
:1029A00022E0036A0B430362436A0B4343621BE06A
:1029B000036A8B430362436A8B434362836A8B439C
:1029C000836211E0036A8B430362436A0B434362F1
:1029D000836A8B43836207E0036A8B430362836AE3
:1029E0000B43836200E000BF00BF03690B43036138
:1029F00000BD0246906901238B401840002801D099
:102A0000012070470020FCE77047704700B503467F
:102A10001846FFF729FC00BDF7B581B00E461546F4
:102A20000020009000241BE0A20001995018FFF73D
:102A30003DFC00900098000EA10070540098000228
:102A4000000EA1008919487000980004000EA10032
:102A500089198870A10089190098C870601C84B217
:102A6000E917890F49198910A142DDDCA2000199FB
:102A70005018FFF71BFC0090002709E0F800182110
:102A8000091A0098C840A1008919C855781C87B256
:102A90002846E917890F091889108900691AB9426F
:102AA000ECDCFFBDF7B581B00E4614460020009067
:102AB000002519E0A800305C0006A900491C715CE3
:102AC00009040843A900891C715C09020843A90094
:102AD000C91C715C08430090AA0001995018009924
:102AE000FFF7F6FB681C85B2E117890F09198910F9
:102AF000A942DFDC0020009000270DE0A800C019EB
:102B0000305CF9001822511A884000994018009052
:102B100000980090781C87B22046E117890F0918A9
:102B200089108900611AB942E8DCE117890F091898
:102B300089108900611A002905DDAA000199501841
:102B40000099FFF7C5FBFFBD0A489321C90508613D
:102B500008460068102188439321C90508600020B9
:102B6000086100BF0348401C05210907886100BFB8
:102B7000704700009966AA5570477047C206D20E8A
:102B800001219140014A11607047000000E100E01E
:102B900010B5002819DA1A4A03071B0F083B9B08D7
:102BA0009B00D2588307DC0EFF23A3409A438B0778
:102BB0001B0E8407E40EA3401A43114B0407240F95
:102BC000083CA408A4001A5118E00E4A03231B0273
:102BD000D21883089B00D2588307DC0EFF23A34042
:102BE0009A438B071B0E8407E40EA3401A43054B40
:102BF000032424021B198408A4001A5110BD0000EC
:102C00001CED00E000E100E010B5002819DA1A4AD6
:102C100003071B0F083B9B089B00D2588307DC0E61
:102C2000FF23A3409A438B071B0E8407E40EA340A7
:102C30001A43114B0407240F083CA408A4001A519E
:102C400018E00E4A03231B02D21883089B00D258B7
:102C50008307DC0EFF23A3409A438B071B0E8407D8
:102C6000E40EA3401A43054B032424021B198408D5
:102C7000A4001A5110BD00001CED00E000E100E0CE
:102C800010B5002819DA1A4A03071B0F083B9B08E6
:102C90009B00D2588307DC0EFF23A3409A438B0787
:102CA0001B0E8407E40EA3401A43114B0407240FA4
:102CB000083CA408A4001A5118E00E4A03231B0282
:102CC000D21883089B00D2588307DC0EFF23A34051
:102CD0009A438B071B0E8407E40EA3401A43054B4F
:102CE000032424021B198408A4001A5110BD0000FB
:102CF0001CED00E000E100E010B50020FFF74AFA0B
:102D00000120400500F070F805210120FFF7BEF911
:102D10000D490120FFF7DCF90C490120FFF7F2F91A
:102D20000220FFF74DFA0220FFF75CFA0021012094
:102D3000FFF710FA00BF06200549086100BF022016
:102D4000FFF760FA10BD000072450000B9220000D4
:102D500040000050704770477047000070B504464F
:102D60000D460B4E00BF00F047F8002800D003E0EE
:102D70003046761E0028F6D100BF064820430521C4
:102D8000090748620846456000F03EF870BD000043
:102D9000102700000000695A10B5044605200007FE
:102DA000846000F031F810BD014605221207106A58
:102DB0008008800002460A43104682B2024B1A4342
:102DC00005231B071A6270470000695A052109078D
:102DD000086A0821084381B2024A114305221207FA
:102DE000116270470000695A05210907C96801434B
:102DF00005221207D160704705200007806AC007CE
:102E0000C00F704770470000F8B505200007006A42
:102E10008007000F19490F5805200007406A8007F6
:102E2000800F002801D13C4607E005200007406ADA
:102E30008007800F022800D1114C05200007406850
:102E40000006C50D002D02D10E48046005E029469C
:102E50002046FDF7C0FB0B4908600520000780688D
:102E60000006C60D002E02D10748046005E0314679
:102E70002046FDF7B0FB04490860F8BD0C000020B7
:102E8000409C00000000002004000020704700006B
:102E900010B5FE480078401EFC49087008460078CE
:102EA00000282BD1FA4800783C2827DAF848007827
:102EB000401CF74908706420F449087000F0BCFB1E
:102EC000F448007800280AD0F3480078401EF24900
:102ED000087008460078002801D1EE490870EF48D4
:102EE000007800280AD0EE480078401EEC490870AF
:102EF00008460078002801D1E8490870E9480088B0
:102F0000002811DDE7480088401EE6490880084691
:102F10000088002808D115208006806840084000FD
:102F2000401C152189068860DF48007800281BD1E5
:102F300029204006C0688007C00F002814D0DB4855
:102F40000078002810D1DA480088401CD849088051
:102F500008460088D749884206DB00BFD6480521CD
:102F60000907886100BF00BFD448007801280FD14D
:102F7000D3480088401ED2490880084600880028AF
:102F800006D10220CD490870FF20F530CC490880D9
:102F900001F0A2FA00F0BEFCCA480078002811D067
:102FA000C9480078401EC8490870084600780028C3
:102FB00016D1C6480068401CC44908606420C24954
:102FC00008700DE0C0480078642803D1BF4800684D
:102FD000002805D06420BC4908700020BB49086067
:102FE00053200006C0688006C00F002818D1B848DA
:102FF0000078002814D1B7480088401EB5490880E1
:1030000008460088002814D1B3480078002802D16F
:103010000120B1490870AF208000AE49088008E067
:10302000AC480088AF218900884202D00846A949EF
:10303000088000F03DFD01F039F901F0FDF8A748E6
:10304000007800280ED0A6480088401CA4490880BB
:1030500008460088A349884204DD00209F49087083
:103060009F490880A048007800282DDD9F480088EF
:10307000002815D19C480078012807D1FF202D3069
:103080009A49088000209849087009E0964800781D
:10309000022805D19348954908800120924908707B
:1030A00091480078022803DC90480088002806D167
:1030B00001208D490870FF202D308C4908808B48F5
:1030C0000088401E8949088001F086FB8848007806
:1030D0000421084000281ED086480078401E8549FB
:1030E00008700846007800281ED1A721C905896804
:1030F0008907C90FC9434900022211400846A72188
:10310000C905896891430143A722D2059160142023
:103110007849087008E0A720C0058068022188432C
:10312000801CA721C905886071480078C007C00FBE
:1031300000281ED070480078401E6F49087008466D
:10314000007800281ED1A721C90589684907C90F41
:10315000C9438900042211400846A721C90589688E
:1031600091430143A722D20591601420624908705F
:1031700008E0A720C005806804218843001DA7211E
:10318000C90588605A4800780221084000281ED0EE
:103190005A480078401E59490870084600780028AF
:1031A0001ED1152189068968C906C90FC9430901BD
:1031B0001022114008461521890689689143014370
:1031C00015229206916014204C49087008E01520E1
:1031D0008006806810218843103015218906886098
:1031E000434800782021084000281BD0444800783C
:1031F000401E434908700846007800282BD1A721BB
:10320000C9058A68012191430846A721C905896833
:10321000490849000143A722D2059160142038498A
:10322000087018E053200006C068C006C00F0028D0
:1032300008D1A720C005806840084000A721C90523
:10324000886008E0A720C005806840084000401C56
:10325000A721C90588602648007800285DDD294837
:103260000078401E274908700846007800286AD177
:10327000A721C90589684906C90FC94389014022A8
:1032800011400846A721C90589683DE03C0000209F
:103290001E00002020000020220000201F0000202F
:1032A000210000203E0000201C000020850000209E
:1032B00044000020B80B00009A66AA55BA0000200E
:1032C000420000209C0000203D00002098000020CB
:1032D000250000202A0000209D000020530000202F
:1032E00062000020307500007200002040000020C5
:1032F0004C0000204600002047000020480000202D
:10330000490000204A00002091430143A722D20532
:10331000916032200E49087015E00E4800780028B0
:1033200008D0A720C005806840218843A721C9058F
:10333000886008E0A720C0058068402188434030AD
:10334000A721C90588608D20C00500F00FF810BDC9
:103350004A000020C800002010B502F003FC02481B
:1033600000F004F810BD0000000180460121416119
:103370007047000010B50220FFF736FD082200213B
:10338000204800F043F8082200218D20C00500F0FD
:103390003DF8022240211B4800F044F8194800F093
:1033A0004CF8022240218D20C00500F03BF88D2012
:1033B000C00500F042F81449124800F048F8E12135
:1033C000C9008D20C00500F042F80E4800F03AF820
:1033D0001420FFF7D3FB8D20C00500F033F8132035
:1033E000FFF7CCFB02211420FFF70EFC0221132073
:1033F000FFF70AFC034800F02CF88D20C00500F010
:1034000028F810BD0001804620BF020010B505233A
:103410001B07D96203680C24A343036003681343AA
:10342000036010BD10B503684224A3430360036822
:103430000C4614432343036010BD0168490849004A
:1034400001607047016820221143016070474160AC
:1034500070470168802211430160704710B58920D0
:10346000C00500690007000F13490860084600689E
:10347000400808608920C005006A104908600E48AD
:103480000068030000F03EF90705060A131515143D
:1034900015000EE001200A4908700AE08920C005E5
:1034A00000F043F8C4B2204602F078FC01E000E0EE
:1034B00000BF00BF10BD000030000020340000201D
:1034C000BC000020704710B500F064F800F030F840
:1034D00010BD0000FFB581B0044615461E460A9F88
:1034E000A06980098001A061A16928463043384362
:1034F0000143A1610449096808090299FDF76BF8C5
:10350000A06005B0F0BD000004000020C16A1022D8
:103510009143C1627047C16801221143C160704785
:10352000C16802221143C1607047014608687047B4
:1035300038B54B24E40100200346032221460090C5
:103540008920C005FFF7C6FF0820FFF74DFC892042
:10355000C005FFF7DBFF8920C005FFF7DCFF8920EE
:10356000C005FFF7DDFF00BF02200849886300BFE8
:1035700000BFC86300BF03210F20FFF781FB0F20AE
:1035800001218140024A116000BF38BD4000005057
:1035900000E100E038B54B24E4010020034603229B
:1035A0002146009045200006FFF794FF1020FFF70A
:1035B0001BFC00BF08200249C86100BF38BD0000E5
:1035C000C00000504160704710B5044600200E490D
:1035D000087001200D49087005200D49087021462A
:1035E0008920C005FFF7EEFF00BF074800780028DC
:1035F00003D1074800780028F7DC00200249087052
:103600000249087010BD0000BC0000201F0000200F
:103610002100002005480649086006488F21C90599
:103620004861002002490860704700009966AA5569
:1036300000058047AA55AA5505480649086006486E
:103640008F21C905486100200249086070470000C9
:103650009966AA5500058047AA55AA5509490A4AFC
:1036600011608F21C90509680C2291438F22D20570
:10367000116011460968014311600021024A11607E
:10368000704700009966AA55000580470449054A1D
:1036900011608F21C905486000211160704700004A
:1036A0009966AA55000580470748084908608F2099
:1036B000C0050068FF21090288438F21C905086001
:1036C00000200249086070479966AA5500058047A6
:1036D00070477047F8B5040C8BB2264682B25E4341
:1036E000104658430D0C370C36040021801916463D
:1036F00079416E43370C36048019264679416E4372
:103700008919F8BD30B47446641E2578641CAB4238
:1037100004D3635D5B00E31830BC18471D46F8E72F
:103720004900CA020243100000D004204A0D01D013
:1037300001221043044A490D914201D1022108435C
:10374000012800D105207047FF07000030380A2803
:1037500001D2012070470020704700BFFEE7000043
:1037600010B51E2453200006C068C006C00F0028F4
:103770003ED122E029204006806820218843203065
:10378000292149068860601EC4B253200006C06823
:10379000C006C00F00280DD008468068202188434D
:1037A000292149068860134800782021884311495F
:1037B000087010BD642000F063FB002CDAD12920D2
:1037C0004006806820218843292149068860002C12
:1037D0000ED10848007820210840002802D101209D
:1037E0000549087003480078202108430149087002
:1037F00000BFDEE74C000020A100002010B53224FD
:1038000053200006C068C006C00F00283ED022E04A
:1038100029204006806840218843403029214906FC
:103820008860601EC4B253200006C068C006C00F86
:1038300000280DD108468068402188432921490687
:10384000886013480078202188431149087010BD12
:10385000642000F015FB002CDAD129204006806896
:1038600040218843292149068860002C0ED1084850
:10387000007820210840002802D101200549087065
:1038800003480078202108430149087000BFDEE7A3
:103890004C000020A100002010B502F0C5F9194825
:1038A000002141560B2001F0E9FB29204006C068A9
:1038B0008007C10F0C2001F0E5FA13494878052173
:1038C000FCF789FE04462146712001F0D7FBA720B2
:1038D000C00580684006C00F01225040014670209C
:1038E00001F0D0FA53200006C068C006C10F6F2057
:1038F00001F0C8FA0548007802F0D2F90120044925
:10390000087010BDA5000020EC0000204C00002035
:103910001D00002056480078002816D05548008821
:10392000401C5449088008460088FF212D318842F8
:1039300002D10120504908704E4800884F49884202
:103940000ADD00204B49088006E04A48008800282C
:1039500002D000204749088049480078002821D03B
:10396000152080068068C007C00F00281AD045487F
:103970000078032816D144480088401C424908803A
:1039800008460088FF21F53188420EDB15208006AD
:1039900080684008400015218906886000203A4967
:1039A000088002E000203849088029204006C068CD
:1039B0008007C00F002850D13448002141561429F7
:1039C0001EDC33480088401E3149088008460088C4
:1039D00000284BD1A521C90589688906C90FC943AB
:1039E0004901202211400846A521C9058968914353
:1039F0000143A522D205916014202549088035E0B5
:103A000022480021415632291EDC22480088401EEF
:103A10002049088008460088002827D1A521C9052B
:103A200089688906C90FC943490120221140084607
:103A3000A521C905896891430143A522D20591605A
:103A400032201449088011E0A520C005806820219B
:103A50008843A521C905886008E0A520C0058068C5
:103A6000202188432030A521C905886070470000C7
:103A7000A2000020AC000020A4000020307500004F
:103A8000A30000201C000020B2000020A5000020A0
:103A9000B0000020AE00002010B50446002C03D07A
:103AA0000220FEF7BDFB02E00220FEF7C9FB10BDBD
:103AB00010B54C480078002811D04B4800780028F9
:103AC00010D14A48007800280CD1142046490870CB
:103AD00001204649087000204249087002E0002099
:103AE0004249087053200006C0684006C00F0028F5
:103AF0000ED13D48007800280DD13D4800780028BF
:103B000009D114203849087001203949087002E0B1
:103B100000203749087053200006C0688006C00F97
:103B200000280ED13048007800280DD131480078A7
:103B3000002809D114202C49087001202D49087053
:103B400002E000202B4908702B48007800280DD097
:103B50002A480078002809D10A202349087001204A
:103B6000264908703C202649087025E02448007842
:103B7000002821DD2148007803281DDA204800783C
:103B8000401E1F49087008460078002814D11B48C1
:103B90000078012803D102201849087006E0174870
:103BA0000078022802D10320144908701420144917
:103BB00008700A200C4908700B48007800280CDDBA
:103BC00010480078012808D107480078401E0649AF
:103BD00008700120FFF760FF02E00020FFF75CFFA4
:103BE00010BD0000A1000020A6000020A7000020BA
:103BF000A8000020A900002024000020AA00002026
:103C0000AB000020C9000020014600200878000217
:103C10004A78104300028A7810430002CA781043A1
:103C20007047000030B502460B46144C2079002145
:103C30000CE0904203D10224114D2C7030BD441C85
:103C4000E0B23C2800DB00204C1CE1B29942F0DBE2
:103C50000A4C207900210CE0904203D10224084D47
:103C60002C70EBE7002800DC3C20441EE0B24C1C2A
:103C7000E1B29942F0DB00BFE0E7000069000020FC
:103C8000BB000020F0B587B00446002006906549CF
:103C9000E01C085C02900298062832D006DC030083
:103CA000FFF730FD061316191C272BBC0E287DD0FC
:103CB00006DC08284DD00A284ED00B2877D194E096
:103CC0001C2875D02B28F9D1A1E000F03BFDA6E01F
:103CD00001F0BAFEA3E000F06FFCA0E05149A01D86
:103CE000085C5149087000220321084602F074F96B
:103CF00095E001204D49087091E001204C49087081
:103D00008DE04849201D085C00020A46611D515C97
:103D100008430390002518E0A01D4019801C41496C
:103D2000085C00020590A01D4019C01C095C0598A4
:103D3000081805903B490919891D481900F080F8B9
:103D400004900598001D281885B203988542E3DB8E
:103D500065E0FFF7A1FD62E00026002E04D1FF2000
:103D60000130344908800AE0012E03D17002314944
:103D7000088004E0022E02D170022E4908802949F1
:103D8000A01D085C2C490860084600680002086015
:103D90002449E01D085C2849096808432649086051
:103DA00008460068000208601E4902E024E035E091
:103DB0001CE020460830085C1F49096808431E497A
:103DC000086008460068000208601649204609306D
:103DD000085C19490968084317490860002002F087
:103DE0000FF80A201549087019E018E00D49091963
:103DF000881D01F0ABF912E00A49A01D0F5CE01D1F
:103E0000085C01903846019902F048F807E005493E
:103E1000A01D0F5C384600F0D7FB00E000BF00BFDC
:103E200007B0F0BD20010020D7000020D500002001
:103E3000D6000020DA000020DC000020E000002096
:103E4000FEB5044626786778A0780502E078401928
:103E500085B2304600F098FB019001984000074978
:103E600040184078B84201D00020FEBD2A46211DEE
:103E7000304600F0D1F800900098F6E7746000003A
:103E800030B5002312E000210DE0002207E00024FD
:103E900001E0651CECB22F2CFBDB551CEAB2272A93
:103EA000F5DB4D1CE9B20329EFDB5B1C8342EAD34F
:103EB00030BD000010B514480078144909788842D4
:103EC00008D011480078114908700F480178702017
:103ED00000F0D8FF53200006C068C006C00F0C4990
:103EE000097888420ED053200006C068C006C00F73
:103EF0000749087053200006C068C006C10F6F2034
:103F000000F0C0FF10BD0000C800002067000020C6
:103F100068000020012804D0022813D0032832D1E1
:103F200021E0A521C9058968102291431031A522FD
:103F3000D20591601146896808229143A522D205D5
:103F4000916021E0A521C905896810229143A5222D
:103F5000D205916011468968082291430831A52253
:103F6000D205916010E0A521C9058968102291430E
:103F7000A522D20591601146896808229143A522A5
:103F8000D205916000E000BF00BF704770B50546E4
:103F90000E463146284601F0ADF80446002C02D109
:103FA0000549087002E001200349087021466D2090
:103FB00000F068FF012070BDC800002070B5054604
:103FC0000E463146284601F095F80446002C02D1F1
:103FD0000549087002E001200349087021466E205F
:103FE00000F050FF012070BDC900002070B50546EB
:103FF0000E463146284601F07DF80446002C02D0DA
:104000000120044908702146092000F03BFF0120EF
:1040100070BD00009D000020F8B505460E4617460D
:104020006D2D1ED006DC012D09D0032D0DD0092DDC
:1040300029D110E06E2D1AD0722D24D11DE0394601
:10404000304600F059F804461EE03946304600F08C
:104050001FF8044618E039463046FFF7C7FF04460C
:1040600012E039463046FFF791FF04460CE039462E
:104070003046FFF7A3FF044606E03946304600F01D
:104080005FF8044600E000BF00BF2046F8BD000016
:1040900070B505460E463146284601F02EF8044616
:1040A00021460BA0FCF7B2F80F49CC7002200F4953
:1040B0000870084602780C490D48007800F02AF98B
:1040C0000C4908702146032000F0D8FF012070BD84
:1040D00041505020736574207765696768743A258C
:1040E0006C64200D0A0000005800002055000020DC
:1040F000540000204C00002070B505460C463422C8
:1041000000210D4801F0C6FB224629460A48801CC2
:1041100001F09AFB7920084908704C703422074856
:1041200001F074FE01F0D6FB22462946012000F082
:104130006DFF012070BD0000EC0000200400001C99
:1041400070B505460E463146284600F0D3FF0446BA
:10415000002C09D153200006C068C006C00F0028FB
:104160000BD1FFF7FDFA08E053200006C068C00637
:10417000C00F002801D0FFF741FB53200006C068A4
:10418000C006C10F6F2000F07DFE2146722000F0B6
:1041900079FE012070BD000010B50446342221498B
:1041A0002148FEF739FC012220492148FEF734FC62
:1041B000002C15D034211B48FCF709FA04221D49B4
:1041C0001A48FCF7A7F979201649087034221648D6
:1041D00001F01CFE04221549154801F017FE1CE0F1
:1041E0001048007879280AD034210E48FCF7EFF9FE
:1041F00079200C49087034220B4801F007FE0B4867
:104200000078792809D004220A490848FCF782F985
:1042100001220649064801F0F9FD01F05BFB01F0BF
:10422000A7FB10BDEC0000200400001CBD00002016
:104230000002001CC1000020292040068068000602
:10424000C00F00282BD0A720C005C068C006C00F33
:1042500000281BD012480078401C114908700846FD
:10426000007896281BDB0F480078022108400028C0
:1042700002D101200C4908700A4800780221084345
:104280000849087000200649087008E00020044929
:10429000087004480078022188430249087070477A
:1042A000660000204C000020A10000201448007887
:1042B000012824D153200006C0684006C00F002802
:1042C0001DD010480068012810DA0F480078022835
:1042D0000CDB0E48C078002802D101200C49087080
:1042E0000020074908700849087008E00548006880
:1042F000012804DB00200249087003490870704758
:104300009C0000209800002090000020BD000020AC
:104310009E000020F8B507460D460026EC78002CDC
:1043200001D10020F8BD052001F0BAFC53200006A1
:10433000C068C006C00F002801D1FFF711FA01F0D4
:104340003DF96946204600F047FFC6B23246214695
:104350000DA0FBF75BFF31460F2000F08FFE684693
:1043600001780E2000F0EEFD68460078002802DD9E
:1043700001200C490870A01BE870002001F090FC9F
:1043800068460078CEE700006665656473203D20CE
:1043900025640909616C7265616479203D2025649A
:1043A0000D0A0000BA00002070B5054634224249CB
:1043B0004248FEF731FB01F08DFA01F01DFB0024AD
:1043C0006AE0A00021183C48801C0818C07800282A
:1043D00000D15FE0A00021183748801C0818007940
:1043E000012800D056E0A00021183348801C405C12
:1043F000334989790722521A012191400840002847
:1044000006D1A00021182C48801C405C002840D117
:10441000A00021182848801C081840782849C9782D
:10442000884236D1A10062182349891C5118887826
:104430000521FFF7F7FBA00021181F48801C081872
:1044400080781F490979884223D1A00022181A4890
:10445000801C111805222846FCF75CF80120194938
:10446000087019490870A00021181348801C405C8E
:1044700000280DD10021A00022180F48801C101820
:10448000017134220C490D4801F0C0FC01F0CCFB55
:1044900004E000BF601CC4B20A2C92DB00BF0B48D2
:1044A0000078022803D101200849087002E00020AA
:1044B0000649087070BD0000EC0000200400001CDC
:1044C000690000205400002055000020BB0000209F
:1044D00001460020C0437047A720C005C068800681
:1044E000C00F002812D10120104908701048007830
:1044F000C007C00F002802D101200E4908700C48E7
:104500000078012108430A4908700EE0002007499D
:10451000087007480078C007C00F002805D004487D
:10452000007840084000024908707047570000209A
:104530004C000020A100002000BF45221206126A94
:1045400020231A40002AF8D04522120650600A287B
:104550000BD100BF45221206126A20231A40002AFE
:10456000F8D00D2245231B065A60704730B502462D
:104570000020002305E01578521C2C18E0B25C1CCA
:10458000A3B28B42F7DB30BD70B5054600F012F8E0
:104590000646002407E060000549085CA84200D1F7
:1045A00003E0601CC4B2B442F5DB00BF204670BD1E
:1045B000746000000E20704710B5002422460321CD
:1045C000022001F009FD10BD10B504464D480078E9
:1045D000844205D021464CA0FBF718FE49480470E0
:1045E0004D48007800286ED12300FFF78BF80705AF
:1045F000182A2B446D06830000BF0120474908702C
:1046000064204749088000204649087046490870E0
:1046100002204649087001204549087070E00120D9
:104620003E490870C8203E49088000203D49087076
:104630003D49087002203D49087001203C4908703E
:104640005EE000BF02203549087000203449088030
:104650000120344908700020334908700220334992
:1046600008700120334908703348007880210843DE
:104670003149087044E00320284908700020284987
:10468000088028490870012027490870022027491E
:1046900008702A480078002802D1012024490870B7
:1046A0000120264908702448007880218843224947
:1046B000087000201F49087021480078002801D1A7
:1046C00000F022FD1CE01CE004201449087017488B
:1046D0000078022808D100201149088001201149E2
:1046E000087000201049087001201049087000F07F
:1046F00019FD05E005200949087000F013FD00BF11
:1047000000BF10BDCB00002077696669207374611B
:1047100074653A25640D0A00850000201C00002005
:1047200080000020820000208400002089000020FA
:10473000A10000204D0000204C000020CA000020F5
:104740007200002010B500240B480078002808D122
:104750000021204601F0D8FAC4B2012006490870B1
:1047600004E00121204601F0CFFAC4B22246032121
:10477000002001F031FC10BDD800002070B50446C7
:104780002546E017800F401980108000201A05D1BF
:1047900064212046FBF729FF002906D1FF21913132
:1047A0002046FBF722FF002901D1012070BD002027
:1047B000FCE71521890689680907C90FC943C900A3
:1047C0000822114008461521890689689143014352
:1047D000152292069160704710B531480078002884
:1047E00045D030480078002808D015208006806821
:1047F0000821884315218906886038E02A48007816
:10480000002825D029480088401E284908800846ED
:104810000088FF21F531884208DB1520800680687A
:104820000821884315218906886020E01F480088F8
:1048300000281CD115208006806808218843083094
:104840001521890688604B20C000184908800EE0B9
:1048500017480078401E164908700846007800285E
:1048600005D1FFF7A6FF13480078114908701248D8
:104870000078022813DA11480088401E0F4908808A
:1048800015208006806808218843152189068860E4
:104890000A480088002802D102200749087010BD8C
:1048A000830000208400002082000020B600002049
:1048B000B40000208000002089000020B800002003
:1048C0008AB0FF202D30FFF7DBFA0020089000248B
:1048D000002707906F20069001F01EFA0820FEF7CF
:1048E000BDFE1920C001FEF7D1FEFEF7DDFEFEF78A
:1048F00091FEFEF7A1FEFDF733FDFEF73BFD01F053
:1049000013F9FDF7A5FBFEF7F7F9FEF7DCFDC8206C
:10491000FFF7B6FAEBA0FBF779FCECA1F0A0FBF7F0
:1049200075FCF4A1F6A0FBF771FCF9A1FDA0FBF763
:104930006DFC0020FFF730FC01F09EFA53200006CA
:10494000C0688006C00F002802D10120F849087015
:104950000020F8490870F84908608FE201F0B0FAC9
:104960000020F6490870F648007800285BD0002047
:10497000F349087001F040F8F2480078002815D19A
:10498000152080068068C007C00F00280ED000F0F8
:10499000C2FBED480078002808D100F0B5FBEB48D9
:1049A0000078002802D10120E8490870E848017821
:1049B0000798814210D0E648007801F071F9E44888
:1049C00000780790E24801780E2000F0BBFAE0483A
:1049D0000178E0A0FBF71AFCE3480078022809D12F
:1049E000E2A0FBF713FC80210E2000F0ABFA0120BF
:1049F000DD490870D3480078012805D1E1480078E6
:104A0000012801D100F09AFBDF480078032808D183
:104A1000DE480078012804D10220DC49087001F04A
:104A200003F9FFF747FADA480078012807D1022096
:104A3000D749087000F076FB0120D6490870D448A9
:104A4000007802281ED1D048007801281AD1D2A0BF
:104A5000FBF7DCFB7D20C000FFF712FA0B20FFF70D
:104A60009BFB19204001FFF70BFA00BFCF4805213F
:104A70000907886100BF0020C6490870C449087052
:104A800003200870CA48007801280DD10020C849C9
:104A90000870C8A0FBF7BAFB0120CB49C8700320FF
:104AA000CA490870CA490870CA4801790698814203
:104AB00006D0C84800790690C348FFF775FC0CE0A3
:104AC000C5480078002808D0A14800780221084095
:104AD000002802D10220BD490870BC480078002897
:104AE00020DDBB480278B849B8480078FFF712FCCF
:104AF000974908700020B549087095480178B7A01B
:104B0000FBF784FB9248007802210840002803D07C
:104B10000120B149087002E00020AF490870002070
:104B2000B6490880AC48007800281CD1B448007809
:104B3000002818D153200006C0684007C00F002885
:104B400011D0A720C005C068C006C00F00280AD138
:104B500000F078FC53200006C068C006C00F002893
:104B600001D0FEF74BFE0120A6490870292040061F
:104B7000C0688007C00F00287ED19B20C005406818
:104B800080210840C00900283AD100BF55209B2150
:104B9000C905C86208464068802108439B21C905B1
:104BA00048600020C86200BF00BF9B20C00540686D
:104BB00080210840C0090028F7D1FDF71BFA044600
:104BC0002046FCF726FA054600228F4BFCF724FA14
:104BD00000228E4B03910290FBF798FF0591049001
:104BE000FBF7AAFD0890214689A0FBF70FFB089868
:104BF000FCF736FB05462A460B468AA0FBF706FB68
:104C00000898FCF72DFB05468C4A8D4BFBF75BFFA4
:104C10008C4A8D4B01910090FBF778FF00228B4B63
:104C200003910290FCF7F8F905910490FCF792F9D2
:104C300040B287490870084600214156322903DCFA
:104C40000120844908700BE000208249087015207B
:104C50008006806840084000401C15218906886055
:104C60007D480078002803D17A48007887420CD02C
:104C700078480778764800E008E0002141560B208C
:104C800000F0FCF9002074490870F7E072480078E1
:104C9000002815D015208006806840084000401C80
:104CA00015218906886064206949087000206A49D6
:104CB00008706748002141560B2000F0DFF9DDE065
:104CC000CCE0000020200D0A0000000043463033F5
:104CD000332D4C4149594B5F33352E312E30000076
:104CE000202056657273696F6E3A202573200D0A75
:104CF000000000003230323131323230000000002A
:104D00002020646174653A202573200D0A0000009C
:104D100074726E6B6A767664386231716B6E6E6C2B
:104D2000000000005049443A202573200D0A00007D
:104D3000880000209C000020980000201E00002019
:104D40007100002085000020720000202300002058
:104D50004C00002073656E64206572726F723A2594
:104D600064200D0A000000004D00002073656E6491
:104D7000204552524F525F4C414E5F434F4E4E546E
:104D80000D0A0000870000201C0000201D000020EC
:104D90009D0000202400002020726573657420743B
:104DA0006865206D637520330D0A00009A66AA5568
:104DB0009E00002066656564206F6E65206F6E2022
:104DC0006B657920210D0A00580000205400002056
:104DD0005500002069000020530000202B2B2B2BB6
:104DE0002B2B2B2B2B2B2B2B2B2B20666565645F02
:104DF0006572726F723A2564200D0A00620000200D
:104E00005D000020A2000020000014400000B0401F
:104E100041444356616C75653A30782530345820EA
:104E2000200D0A0041444356616C75654C6F636107
:104E30006C3A252E32662056200D0A00CDCCCCCC03
:104E4000CCCC0840666666666666F63F0000594050
:104E5000A5000020A3000020A4000020084800783E
:104E600000280BD015208006806840084000401CB8
:104E70001521890688600020014908706EE5000050
:104E8000A300002070B504460D46002616480078A1
:104E9000012800D170BD2146304600F035FF06469E
:104EA0000121304600F030FF06460021304600F078
:104EB0002BFF06460121304600F026FF0646002D56
:104EC00005D10021304600F01FFF064604E0012115
:104ED000304600F019FF064632460321072001F054
:104EE0007BF80120D6E70000D400002070B504460E
:104EF0000E46002512480078012800D170BD2146D9
:104F0000284600F001FF05460421284600F0FCFE7B
:104F100005460021284600F0F7FE054601212846F7
:104F200000F0F2FE05463146284600F0EDFE05464B
:104F30002A460321072001F04FF80120DEE7000098
:104F4000D400002070B505460C4600262D48007898
:104F5000012800D170BD2946304600F0D5FE064636
:104F60000521304600F0D0FE06460021304600F014
:104F7000CBFE0646FF202043FF280AD10121304600
:104F800000F0C2FE0646E1B2304600F0BDFE064625
:104F900030E01D4820431C49884210D10221304690
:104FA00000F0B2FE06462004010E304600F0ACFED2
:104FB0000646E1B2304600F0A7FE06461AE004219C
:104FC000304600F0A1FE0646210E304600F09CFE61
:104FD00006462002010E304600F096FE06462004EA
:104FE000010E304600F090FE0646E1B2304600F079
:104FF0008BFE064632460321072000F0EDFF01201C
:10500000A8E70000D4000020FFFF0000F7B5064627
:105010001446002718480078012800D1FEBD31460B
:10502000384600F071FE07460021384600F06CFE5D
:1050300007462546E017000E40190004010E3846C9
:1050400000F062FE0746E017000E40190012000251
:10505000201AC1B2384600F057FE074622463846AD
:10506000019900F03FFE07463A460321072000F071
:10507000B3FF0120D2E70000D400002070B5054640
:105080000C4600261A480078012800D170BD294638
:10509000304600F039FE06460221304600F034FE6C
:1050A00006460021304600F02FFE06460421304619
:1050B00000F02AFE0646210E304600F025FE064688
:1050C0002002010E304600F01FFE06462004010EAD
:1050D000304600F019FE0646E1B2304600F014FEFC
:1050E000064632460321072000F076FF0120CDE777
:1050F000D400002002461078704710B503460C46D5
:105100001846FEF781FD10BD10B5002203211C20BA
:1051100000F062FF10BD10B5002203212B2000F02B
:105120005BFF10BD10B50020034908700022032169
:10513000042000F051FF10BDD500002010B5002262
:1051400003210E2000F048FF10BD000010B50446FA
:105150002078012819D11248007800280ED16078F3
:1051600010490870A0784870E07888702079C8707D
:1051700060790871A0794871E079887102200A4944
:1051800008700AA0FBF742F805E00DA0FBF73EF817
:1051900004200549087000200E49087010BD000069
:1051A000BB00002069000020720000206765745F6A
:1051B00074696D655F737563636573730D0A0000D1
:1051C0006765745F74696D655F6572726F720D0AF1
:1051D0000000000023000020FEB506460C4600201B
:1051E00002903546E1208000019037463220009041
:1051F000012057490870002056490870012056497F
:105200000870292040068068802188438030292149
:10521000490688602820FEF733FE00202070012018
:105220004E4908706FE000BF00204D490870A7206C
:10523000C005C068C006C00F002803D100F052FAB4
:10524000019003E06D1C7F1C05200190019800284F
:1052500011D144A0FAF7DAFF207804210843207026
:1052600047480078084346490870012045490870BE
:10527000384908704AE00020FEF702FE6D1E7F1ECE
:10528000A720C005C068C006C00F002826D03EA0D9
:10529000FAF7BCFF322000901CE0062000F096F8E0
:1052A0000098401EC0B200906420FEF7E9FDA720E0
:1052B000C005C068C006C00F002800D10DE00098EE
:1052C000002807D135A0FAF7A1FF20780221084372
:1052D00020701BE000980028DFD100BF2078002854
:1052E0000CD0002D0AD00298401CC0B20290029847
:1052F000022802DA0020207096E707E000202070E4
:1053000002901F490870002D8DDC00BF0020264947
:10531000087026480078002806DD2078012108431F
:10532000207023A0FAF772FF062000F04FF800204B
:10533000094908700120224908700020214908808D
:1053400003490870012020490870F01BFEBD0000D1
:10535000640000205E000020610000209F0000200B
:105360001E0000206D6F746F72206E6F74206D6F61
:105370007665206F7220646574206572720D0A0074
:105380004C000020A100002069725F6572726F728C
:105390002072656164790D0A000000006972206561
:1053A00072726F720D0A0000560000205700002034
:1053B000666F6F64206572726F72200D0A000000C4
:1053C0004E0000205000002052000020042804D08D
:1053D000052813D0062832D121E0A521C905896806
:1053E00049084900491CA522D205916011468968E7
:1053F00004229143A522D205916021E0A521C9058F
:10540000896849084900A522D2059160114689683A
:1054100004229143091DA522D205916010E0A52127
:10542000C905896849084900A522D205916011463D
:10543000896804229143A522D205916000E000BF53
:1054400000BF704710B5444C01204449087000204B
:105450004349087053200006C0684007C00F002869
:1054600002D00220FEF756FD6BE0A720C005C06801
:10547000C006C00F002810D000F0A0F87D20C000AA
:10548000FEF7FEFCA720C005C068C006C00F0028BC
:1054900000D058E00220FEF73DFD53200006C06812
:1054A0004007C00F002816D10A20FEF7E9FC532060
:1054B0000006C0684007C00F00280CD10320FEF78B
:1054C00029FD28A0FAF7A2FE2C4800784021884345
:1054D0002A49087037E01920400184420CD128A0E5
:1054E000FAF794FE00F06AF87D20C000FEF7C8FCD1
:1054F0002F4C0220FEF70EFDFF202D3084421BD1E1
:105500002C48FAF783FE00F059F80220144908707D
:1055100000201249087019480078402108400028EE
:1055200002D1012024490870144800784021084322
:1055300012490870012010BD0A20FEF7A1FC601E70
:1055400084B2002C91D100BF0320FEF7E3FC0020C1
:105550000249087000BFEEE714050000610000205A
:105560005D000020636C6F736520646F6F72207341
:105570007563636573732121210D0A004C000020BF
:10558000636C6F736520646F6F72206572726F72E7
:105590002066697273742074696D652C206F706564
:1055A0006E2074686520646F6F720D0A0000000041
:1055B00016030000E0610000A100002010B5FF24E8
:1055C000913401203349087000203349087053207A
:1055D0000006C0684007C00F0123584058400246EB
:1055E00053200006C0680007C00F584058400146CD
:1055F0002AA0FAF70BFE53200006C0680007C00F70
:10560000002802D00120FEF785FC3BE05320000675
:10561000C0680007C00F002816D10A20FEF730FC32
:1056200053200006C0680007C00F00280CD10320DB
:10563000FEF770FC1EA0FAF7E9FD22480078402131
:105640008843204908701FE00A20FEF719FC601EFD
:1056500084B2002C16D10320FEF75CFC1AA0FAF7E6
:10566000D5FD1848007840210840002802D10120CB
:105670001B490870134800784021084311490870FD
:10568000012010BD002CC1D100BF0320FEF742FC59
:105690000020F6E7610000205D0000206F70656E5D
:1056A0003A25642C20636C6F73653A25640D0A00FB
:1056B000646F6F72206F70656E20737563636573BE
:1056C000730D0A004C0000206F70656E20646F6FD0
:1056D000722074696D656F75742121210D0A0000B7
:1056E000A1000020F8B5E124A40000260027042032
:1056F000FFF76CFE00BFC825294643A0FAF786FDD8
:1057000015E00A20FEF7BCFB53200006C0688007A6
:10571000C00F002803D140A0FAF778FD09E0681E09
:1057200085B2002D03D140A0FAF770FD0024002DB2
:10573000E7D100BF2AE053200006C0688007C00FF1
:10574000002812D00A20FEF79BFB53200006C068F9
:105750008007C00F002808D0701C86B2062E04DD1A
:1057600033A0FAF753FD00260127002F09D053205C
:105770000006C0688007C00F002802D1002720461D
:10578000F8BD0A20FEF77CFB601E84B2002CD2D14B
:1057900035D12C480078002831D12A480078401CA7
:1057A000284908700520FFF711FEFF20F530FEF7AD
:1057B00067FB0420FFF70AFEFF20F530FEF760FBD1
:1057C0000520FFF703FEFF20F530FEF759FB04200C
:1057D000FFF7FCFDFF20F530FEF752FB0520FFF739
:1057E000F5FDFF20F530FEF74BFB0420FFF7EEFD43
:1057F000FF20F530FEF744FBFFF774FF02E00020C6
:10580000104908702046BBE7646574206F75743AD0
:10581000693A2564200D0A004D4F544F525F4445AC
:1058200054200D0A00000000693D300D0A00000000
:10583000666565642064657420616E64206F7574AC
:10584000200D0A0056000020F0B505460E4613460E
:105850002A463446002D01D0002E01D10020F0BD93
:10586000A24202D9E018904208D2002103E0605C15
:105870005054481C81B29942F9DB09E0194605E011
:10588000481E205C4F1ED055481E81B20029F7DC0F
:105890002846E4E730B503460C461946002B00D1F4
:1058A00030BD01E00C70491C1046551EAAB20028FC
:1058B000F8D11846F4E701460022002900D17047CC
:1058C000002200E0521C0B78491C002BFAD1104634
:1058D000F5E700007CB5342217491848FDF79CF81D
:1058E00017A0FAF793FC002423E0A0002118124827
:1058F000801C08180079A10062180F49891C5118F2
:10590000C97800910190A00025180B48801C281828
:105910008378A00025180848801C28184278A00029
:1059200025180548801C415D0AA0FAF76FFC601C31
:10593000C4B20A2CD9DB7CBDEC0000200400001CA2
:105940007265616420666565645F696E666F3A20A2
:10595000200D0A00253032582D253032582D2530A3
:1059600032582D253032582D253032580D0A00007E
:1059700010B501220C490D48FDF74EF80A48017890
:105980000BA0FAF743FC084841780CA0FAF73EFC5C
:10599000054881780EA0FAF739FC0348C17812A0B7
:1059A000FAF734FC10BD0000BD0000200002001C0E
:1059B00076616C3A256420200D0A00006C65645FF6
:1059C0007377697463683A256420200D0A0000002B
:1059D000666F6F645F6C65645F7377697463683A60
:1059E000256420200D0A00006C6F636B5F6B657986
:1059F0003A256420200D0A0010B5074883784278C4
:105A0000017806A0FAF702FC034843790279C178CD
:105A100008A0FAF7FBFB10BD690000205365742055
:105A2000444154453A2025642D25642D25642020C9
:105A300000000000202054494D453A2025643A25B5
:105A4000643A25640D0A00003EB500240020009051
:105A50000190029025A0FFF72EFF85B22A4623A1D0
:105A6000204600F03FF9C4B222A0FFF724FF85B220
:105A70002A4620A1204600F035F9C4B222A0FFF743
:105A80001AFF85B22A4620A1204600F02BF9C4B2A5
:105A90001FA0FFF710FF85B22A461DA1204600F087
:105AA00021F9C4B21CA0FFF706FF85B22A461AA14D
:105AB000204600F017F9C4B219A0FFF7FCFE85B22A
:105AC0002A4617A1204600F00DF9C4B215A0FFF731
:105AD000F2FE85B22A4613A1204600F003F9C4B2B3
